:020000040800F2
:1000000060040020A1010008D713000809130008AC
:10001000D51300080D0200087B180008000000003E
:10002000000000000000000000000000591400085B
:100030000F02000800000000D91300085B1400083C
:10004000BB010008BB010008BB010008BB010008A0
:10005000BB010008BB010008BB010008BB01000890
:10006000BB010008BB010008BB010008BB01000880
:10007000BB010008BB010008BB010008BB01000870
:10008000BB010008BB010008BB010008BB01000860
:10009000BB010008BB010008BB010008BB01000850
:1000A000BB010008BB010008BB010008BB01000840
:1000B000011500080000000000000000BB0100085E
:1000C000BB010008BB010008BB010008BB01000820
:1000D000BB010008BB010008BB010008BB01000810
:1000E000BB010008BB010008000000000000000088
:1000F0000000000000000000000000000000000000
:1001000000000000BB01000800000000BB01000867
:100110000000000000000000BB010008BB01000857
:10012000BB010008BB010008BB010008BB010008BF
:10013000BB010008000000000000000000000000FB
:10014000BB010008BB010008BB0100080000000063
:10015000BB010008BB010008BB010008BB0100088F
:10016000BB010008BB010008BB0100080000000043
:10017000BB010008BB0100080000000000000000F7
:10018000BB010008BB010008BB010008DFF80CD070
:1001900000F02AF800480047BD180008600400205D
:1001A0000648804706480047FEE7FEE7FEE7FEE711
:1001B000FEE7FEE7FEE7FEE7FEE7FEE7BD14000808
:1001C0008D010008D2B201E000F8012B491EFBD2DC
:1001D00070470022F6E710B513460A460446194652
:1001E000FFF7F0FF204610BD064C074D06E0E06823
:1001F00040F0010394E8070098471034AC42F6D36E
:10020000FFF7C8FF5019000870190008FEE7704793
:100210007047000070B5044600F0EAF80546601C1F
:1002200002D004480078044400F0E2F8401BA042E9
:10023000FAD370BD000000202DE9FC4FDFF894A137
:10024000002301250AF1040B03244FF00F0C0BF1DE
:10025000040EB8E005FA03F632406FD04F68012F64
:1002600005D0022F03D0112F01D0122F17D1D0F8B3
:1002700008905F0004FA07F829EA08090097D1F806
:100280000C8008FA07F848EA0908C0F808804768AF
:10029000B7430E79C6F300169E403E434660C668DB
:1002A0004FEA430804FA08F7BE4301978F6807FA3C
:1002B00008F73743C7604E68022E01D0122E13D1C3
:1002C000DE0800EB86060096366A5F07FF0E0CFA22
:1002D00007F926EA0906D1F8109009FA07F949EA60
:1002E0000609009EC6F820900668019FBE430F795C
:1002F00007F0030707FA08F7374307604E68F60070
:1003000060D5354E376E47F001073766366E23F0FD
:10031000030706F001060096304E3E44B146B6682B
:100320009F074FEA17780CFA08F7BE43B0F1904FD9
:1003300005D02B4FB84204D1012712E042E000273C
:100340000FE0284FB84201D102270AE0264FB842F9
:1003500001D1032705E0254FB84201D1042700E071
:10036000072707FA08F73743C9F80870DAF800607A
:100370005746D1F8048096435FEAC83800D5164343
:100380003E60DBF800605F46D1F8048096435FEA88
:10039000883800D516433E60DEF800607746D1F815
:1003A000048096435FEAC82800D516433E60094F93
:1003B0000C373E68D1F8048096435FEA882800D560
:1003C00016433E605B1C0A6832FA03F67FF442AFC4
:1003D000BDE8FC8F00040140001002400000014015
:1003E0000004004800080048000C004800100048C5
:1003F00001488068704700000000002002488168C2
:1004000002781144816070470000002010B500247C
:10041000032000F071F8002000F008F808B1012472
:1004200001E000F025F8204610BD000070B50E4E2A
:1004300005460024307898B14FF47A71B1FBF0F0A2
:100440000A490968B1FBF0F000F03CFC40B9102DFE
:1004500006D200222946501E00F02EF8756000E0FA
:100460000124204670BD0000000000200C00002088
:10047000094808B5016E41F001010166016E01F005
:1004800001010091816D41F080518165806D00F026
:100490008050009008BD000000100240002809DBD9
:1004A00000F01F02012191404009800000F1E0208E
:1004B000C0F8001170470000F0B40E4B1B680C46EA
:1004C000C3F30223C3F10705042D00D90425191D28
:1004D000072901D2002300E0DB1E012606FA05F100
:1004E000491E214099409E40761E16403143F0BC83
:1004F00001F0C4B90CED00E0064900F007020868FD
:100500004FF6FF03184040EA0220034A10430860F8
:10051000704700000CED00E00000FA051649B0F548
:10052000007F0868C0F3412009D0022805D0086880
:1005300020F4C06040F4806008600020704701280B
:10054000FBD0086820F4C06040F4007008600B48DD
:100550003222006850430A4AB0FBF2F0401C00E02F
:10056000401E4A69520501D50028F9D14869400565
:10057000E3D5032070470000007000400C0000200D
:1005800040420F000248006800F4C060704700005D
:10059000007000402DE9F0470F46050058D0404E4E
:1005A000306800F00700B84209D2306820F0070038
:1005B00038433060306800F00700B84248D12878EE
:1005C000384CC0072CD06868032811D0022812D0FC
:1005D000216898B1490500293ADAA16821F00301A0
:1005E0000143A160FFF704FF804641F2883910E023
:1005F00021688901EFE721688903ECE78907EAE7C9
:10060000FFF7F6FEA0EB0801494502D90320BDE83B
:10061000F087A068696800F00C00B0EB810FEFD1A3
:100620002878800705D5A068A96820F0F000084365
:10063000A060306800F00700B8420BD9306820F0A5
:10064000070038433060306800F00700B84201D03E
:100650000120DCE72878400705D5A068E96820F488
:10066000E0600843A0602878000706D5A0682969E3
:1006700020F4605040EAC100A06000F01BF8A168BF
:10068000094AC1F30311515C01F01F01C840074939
:10069000086007480068BDE8F047FFF7C7BE0000E4
:1006A0000020024000100240101900080C00002039
:1006B0000400002070B52549002318468A68CC68DC
:1006C00012F00C0204F00306214C4FEA640509D035
:1006D0000C2A05D0042A32D0082A00D1284670BD41
:1006E000012E10D10B681B0704D4D1F89430C3F34A
:1006F000032302E00B68C3F30313164E56F82330AE
:10070000DAB10C2AEBD1C86800F00300022818D037
:10071000032818D01846CA68CB68C2F30212C3F384
:1007200006234343521CB3FBF2F2C868C0F3416096
:10073000401C4000B2FBF0F070BD184670BD204672
:1007400070BD2046E7E72846E5E7000000100240BC
:100750000024F400201900082DE9F84304006FD0AC
:10076000FE4DA86800F00C06E86800F0030720784A
:10077000C00664D576B10C2E01D1012F0AD0A06934
:10078000002828687AD040F001002860FFF730FE8A
:1007900080465DE02868800702D5A0690028DED089
:1007A000216A2868000703D5286800F0F00004E0FB
:1007B000D5F89400F02202EA1010814216D90846BA
:1007C00000F00CFE00283BD1286840F008002860AB
:1007D0002868216A20F0F000084328606868E16911
:1007E00020F47F4040EA0120686016E0286840F06D
:1007F000080028602868216A20F0F000084328607B
:100800006868E16920F47F4040EA0120686026B909
:10081000206A00F0E3FD0028D5D1FFF74BFFA9685F
:10082000CF4AC1F30311515C01F01F01C840CD490B
:100830000860CD480068FFF7F9FD00287ED12EE062
:10084000CAE000BFFFF7D4FDA0EB0800022876D86D
:1008500028688007F6D5286840F0080028602868D6
:10086000216A20F0F000084328606868E16920F4FC
:100870007F4040EA0120686011E0FFE720F00100BE
:100880002860FFF7B5FD804606E000BFFFF7B0FD2A
:10089000A0EB08000228DAD828688007F6D4207870
:1008A000C00740D0082E18D00C2E01D1032F14D031
:1008B0006068B0F5803F17D0B0F5A02F286817D03A
:1008C00020F480302860286820F480202860606848
:1008D000E0B1FFF78DFD804614E02868800322D543
:1008E0006068002878D01EE0286840F48030EDE78A
:1008F00040F480202860F7E7FFF77AFDA0EB0800BE
:100900006428A4D828688003F6D50CE0FFF770FDB2
:10091000804605E0FFF76CFDA0EB0800642896D840
:1009200028688003F6D4207880073BD5042E11D0A8
:100930000C2E01D1022F0DD0E06801E0B6E1FFE0FE
:10094000002828681ED040F480702860FFF750FD12
:1009500007460CE0286840050CD5E0680028C1D0A7
:1009600008E000BFFFF744FDC01B022893D82868A9
:100970004005F7D56868217C20F0FE4040EA016020
:1009800068600FE020F480702860FFF731FD0746B3
:1009900005E000BFFFF72CFDC01B0228B1D8286876
:1009A0004005F7D42078000729D560690028D5F8DC
:1009B000940012D040F00100C5F89400FFF718FD34
:1009C000074604E0FFF714FDC01B022899D8D5F8AC
:1009D00094008007F6D512E02BE120F00100C5F865
:1009E0009400FFF705FD074605E000BFFFF700FD97
:1009F000C01B022885D8D5F894008007F6D420784B
:100A0000400766D5A86D0027C00008D4A86D40F047
:100A10008050A865A86D012700F0805000905348D1
:100A20000168C90512D40168814641F480710160F2
:100A3000FFF7DEFC804605E0FFF7DAFCA0EB0800DC
:100A400002287DD8D9F80000C005F5D5A068012896
:100A500016D00528D5F8900017D020F00100C5F871
:100A60009000D5F8900020F0040000BFC5F8900079
:100A7000A06841F28839C0B1FFF7BAFC80460FE0A8
:100A8000D5F8900040F00100F0E740F00400C5F810
:100A90009000F5E7FFF7ACFCA0EB080149454FD803
:100AA000D5F890008007F5D50EE0FFF7A1FC804651
:100AB00006E000BFFFF79CFCA0EB080149453FD8CA
:100AC000D5F890008007F5D41FB1A86D20F08050B4
:100AD000A8652078800628D5606A0028D5F8980097
:100AE00012D040F00100C5F89800FFF781FC0746DE
:100AF00005E000BFFFF77CFCC01B022820D8D5F81A
:100B000098008007F6D510E020F00100C5F89800A5
:100B1000FFF76EFC074604E0FFF76AFCC01B0228E3
:100B20000ED8D5F898008007F6D4A06AA8B102289C
:100B300024D00C2E7DD0286820F08070286000E042
:100B4000B3E02868000103D4E86820F00300E860FF
:100B5000E86807490840E8600CE09FE000100240A8
:100B6000101900080C000020040000200070004054
:100B7000FFFFEEFEFFF73CFC044699E0E868E26AFE
:100B800000F00301914226D1216B00F070020901AF
:100B9000103991421FD1626B00F4FE41B1EB022F7C
:100BA00019D194F8382000F07841B1EBC26F12D11E
:100BB000A18F00F4C00249084905A1F50011914236
:100BC00009D194F8401000F0C06049084906A1F12D
:100BD000007181424BD00C2E6FD0286840016CD43C
:100BE000286820F080702860FFF702FC064604E0C9
:100BF000FFF7FEFB801B022857D828688001F7D436
:100C0000F4E90B016FF00F0202EB01110843218A96
:100C10005204490802EB4151A26841EA022108430B
:100C2000217D4FF07E42490802EB41610843217B60
:100C300000E042E040EAC160E968214A114008430F
:100C4000E860286840F080702860E86840F08070B4
:100C5000E860FFF7CDFB044605E000BFFFF7C8FBE7
:100C6000001B022821D828688001F7D523E02868D6
:100C7000800120D4286840F080702860E86840F047
:100C80008070E860FFF7B4FB044604E0FFF7B0FBB8
:100C9000001B022809D828688001F7D50BE000BFA7
:100CA000FFF7A6FB001B022802D90320BDE8F8834A
:100CB00028688001F4D40020F8E70120F6E700005E
:100CC0008C809D0110B5401EB0F1807F01D30120C2
:100CD00010BD4FF0E02460610F21601700F0CEFDE1
:100CE0000020A06107202061002010BD70477047E0
:100CF00070470000F0B590F83C20012A29D001246B
:100D000080F83C40022280F83D2003685A689D68C4
:100D1000114EB34203D122F470074A683A4322F0DD
:100D200070070A683A435A600268B24205D0B2F1CD
:100D3000804F02D0094B9A4204D1896825F0800384
:100D40001943916080F83D40002180F83C1008462E
:100D5000F0BD0220F0BD0000002C01400040014029
:100D600010B5040003D094F83D0010B107E0012055
:100D700010BD002084F83C00204600F023F802203B
:100D800084F83D00211D206800F0C0FB012084F89C
:100D9000480084F83E0084F83F0084F8400084F85E
:100DA000410084F8420084F8430084F8440084F849
:100DB000450084F8460084F8470084F83D00002090
:100DC00010BD000008B50068B0F1804F12D10A488C
:100DD000816D41F001018165806D002200F001000C
:100DE000009011461C20FFF767FBBDE808401C205F
:100DF000FFF754BB08BD00000010024070B5044668
:100E000090F83C00012817D0012584F83C500220BE
:100E100084F83D00226890682E4B184020F47F40F3
:100E200090600868502830D00DDC20284DD005DCBB
:100E300098B310283BD148E0022070BD302844D040
:100E4000402834D139E0602828D0702806D0B0F589
:100E5000805F2CD0B0F5005F29D10AE0CB68D1E9E2
:100E60000121206800F095FB2068816841F077013E
:100E700009E0CB68D1E90121206800F08AFB2068F5
:100E8000816841F48041816011E0CA684968206846
:100E900000F0D0FC5021206807E016E0CA684968DD
:100EA000206800F0D8FC6021206800F07CFB84F80A
:100EB0003D50002084F83C0070BDCA684968206835
:100EC00000F0B8FC40212068EFE722680146104698
:100ED000EBE7000088FFFEFF704770B5044600682E
:100EE00001694FF00005C943890715D4C168C9439A
:100EF000890711D4E91E01610120207720688069EB
:100F00008007204602D0FFF7E7FF04E000F0CEF8AC
:100F1000204600F08DF9257720680169C94349070B
:100F200017D4C168C943490713D46FF004010161A4
:100F3000022020772068806910F4407F204602D08C
:100F4000FFF7CAFF04E000F0B1F8204600F070F9A6
:100F5000257720680169C943090716D4C168C943C8
:100F6000090712D46FF0080101610420207720687E
:100F7000C0698007204602D0FFF7AEFF04E000F012
:100F800095F8204600F054F9257720680169C94397
:100F9000C90617D4C168C943C90613D46FF010013C
:100FA0000161082020772068C06910F4407F204646
:100FB00002D0FFF791FF04E000F078F8204600F03F
:100FC00037F9257720680169C943C90708D1C16885
:100FD000C943C90704D1891E0161204600F092F976
:100FE00020680169C943090609D4C168C9430906D3
:100FF00005D46FF0800101612046FFF778FE20687C
:101000000169C943C90509D4C168C943090605D4A2
:101010006FF4807101612046FFF768FE2068016966
:10102000C943490609D4C168C943490605D46FF0CC
:1010300040010161204600F066F920680169C9435A
:1010400089060BD4C168C943890607D46FF0200113
:1010500001612046BDE87040FFF74ABE70BD000048
:1010600010B586B0044614216846FFF7B2F8206830
:10107000B0F1804F15D10C48C16C41F00101C16441
:10108000C06C022100F0010005900120CDE90001B3
:1010900000210291CDE9031069464FF09040FFF71F
:1010A000CBF806B010BD000000100240704770B5CC
:1010B000044690F83C000D4601280BD0012084F82E
:1010C0003C000C2A45D007DC5AB1042A1BD0082A60
:1010D00078D12CE0022070BD102A4ED0142A71D194
:1010E0005DE0206800F068FA2068816941F008013D
:1010F00081612068816921F0040181612068816932
:101100002A69114311E0206800F092FA2068816991
:1011100041F4006181612068816921F4806181610D
:10112000206881692A6941EA022181614AE02068D8
:1011300000F0BAFA2068C16941F00801C161206875
:10114000C16921F00401C1612068C1692A691143A4
:1011500011E0206800F0E2FA2068C16941F4006102
:10116000C1612068C16921F48061C1612068C169E1
:101170002A6941EA0221C16124E0206800F0FEFAF8
:101180002068416D41F0080141652068416D21F002
:10119000040141652068416D2A69114311E020680E
:1011A00000F01AFB2068416D41F400614165206840
:1011B000416D21F4806141652068416D2A6941EAF1
:1011C00002214165002084F83C0070BD10B5040088
:1011D00003D094F83D0010B107E0012010BD0020BD
:1011E00084F83C00204600F022F8022084F83D00FC
:1011F000211D206800F08AF9012084F8480084F855
:101200003E0084F83F0084F8400084F8410084F8F0
:10121000420084F8430084F8440084F8450084F8D0
:10122000460084F8470084F83D00002010BD704758
:101230007047000010B50446022269B1042912D09B
:10124000082917D00C291CD0102921D094F843006C
:10125000012824D0012010BD94F83E000128F9D1C6
:1012600084F83E201DE094F83F000128F2D184F874
:101270003F2016E094F840000128EBD184F840208C
:101280000FE094F841000128E4D184F8412008E0FF
:1012900094F842000128DDD184F8422001E084F86E
:1012A00043200122206800F067F912492068124AA1
:1012B000884204D0904202D0104B984203D1436C34
:1012C00043F4004343642068884204D0B0F1804F67
:1012D00001D0904207D18168094A1140062906D001
:1012E000B1F5803F03D0016841F0010101600020A9
:1012F00010BD0000002C01400040014000440140AE
:101300000700010070477047FEE70000094808B574
:10131000C16C41F08001C164C16C01F08001009199
:10132000C16C41F00101C164C06C00F0010000908B
:1013300008BD00000010024010B58EB000240794D4
:10134000089409940A940B940C941C2168460D94FB
:10135000FEF73FFF1E484FF0804101604F21C0E97A
:10136000011440F2F311C0E903148461FFF7F8FCA3
:1013700008B1FEF74DFF4FF48050079007A91448BD
:10138000FFF73CFD08B1FEF743FF1148FFF71EFFD2
:1013900008B1FEF73DFF0B940BA90D480D94FFF724
:1013A000A9FC08B1FEF734FF6020CDE9000402205B
:1013B00002900022694604940548FFF778FE08B1C0
:1013C000FEF726FF0248FFF74BFE0EB010BD0000EF
:1013D00010000020FEE7704770470000F8B51C4D74
:1013E00006460024A86DC00002D5FFF7CBF80DE03B
:1013F000A86D40F08050A865A86D00F08050009066
:10140000FFF7C0F8A96D21F08051A965B0F5007F04
:1014100004D0802E07D94FF003040AE0802E08D9AB
:10142000A02E01D804E001D1022402E0702E00D1E8
:1014300001240848016821F0070121430160006888
:1014400000F00700A04201D00120F8BD0020F8BD47
:1014500000100240002002407047FEF7CFBF10B5D9
:1014600096B044216846FEF7B4FE142111A8FEF799
:10147000B0FE01210804CDE90010022003240A90E7
:10148000CDE90B4114210D910721CDE90E101090EB
:101490006846FFF761F90F20CDE9110400204FF4F1
:1014A0008061CDE913011590042111A8FFF772F8AE
:1014B0004FF40070FFF732F816B010BD0D48016808
:1014C00041F4700101600C48016841F001010160C4
:1014D000002181600268094B1A4002608214C260D8
:1014E000026822F48022026081610249C0038039CF
:1014F0000860704788ED00E000100240FFFFF6EA48
:101500000148FFF7EABC00001000002070B5026837
:10151000164B4FF08046984201D0B04203D122F0E2
:1015200070044A682243124C124D984205D0B042D2
:1015300003D0A04201D0A84203D122F44076CA6869
:1015400032434E6922F08002324302608A68C262EE
:101550000A688262984203D0A04201D0A84201D119
:10156000096901630121416170BD0000002C014047
:10157000004001400044014010B501F01F0301216B
:10158000046A99408C430462016A9A4011430162E3
:1015900010BD10B5846842EA032224F47F440A4354
:1015A0002243826010BD826822F070020A4342F03A
:1015B0000701816070470000F0B5026A22F0010265
:1015C0000262056A43688269154C25F002052240D3
:1015D0000C6822F0030214438A68134E2A43114D0B
:1015E000124FA84203D0B04201D0B84206D122F037
:1015F000080CCA6842EA0C0222F00402A84203D096
:10160000B04201D0B84205D14D6923F440731D4367
:101610008B692B4343608461496841630262F0BD7A
:101620008FFFFEFF002C01400040014000440140BC
:1016300030B5026A22F010020262046A42688369CD
:10164000154D2B400D6823F4407343EA052524F023
:1016500020038C6843EA0413104CA04207D1CC68E5
:1016600023F0800343EA041323F0400305E00C4C0D
:10167000A04202D00B4CA04207D14C6922F4406238
:1016800042EA84028C6942EA8402426085614968C8
:101690008163036230BD0000FF8FFFFE002C01401C
:1016A000004001400044014030B5026A22F48072DB
:1016B0000262046A4268C369144D2B400D6823F02E
:1016C00003031D4324F400738C6843EA0423104C85
:1016D000A04207D1CC6823F4006343EA042323F437
:1016E000806305E00B4CA04202D00B4CA04207D116
:1016F0004C6922F4405242EA04128C6942EA041214
:101700004260C5614968C163036230BD8FFFFEFF5F
:10171000002C0140004001400044014030B5026A05
:1017200022F480520262046A4268C3690F4D24F4B5
:1017300000542B400D6823F4407343EA05238D6861
:1017400044EA05340A4DA84205D00A4DA84202D009
:10175000094DA84204D14D6922F4804242EA851223
:101760004260C36149680164046230BDFF8FFFFEBF
:10177000002C0140004001400044014030B5026AA5
:1017800022F480320262046A4268436D0E4D2B409F
:101790000D681D4324F400330C8943EA04430B4CC9
:1017A000A04205D00A4CA04202D00A4CA04204D16B
:1017B0004C6922F4803242EA04224260456549685D
:1017C0008165036230BD00008FFFFEFF002C0140E9
:1017D000004001400044014030B5026A22F480120A
:1017E0000262046A4268436D0E4D24F400142B40DB
:1017F0000D6843EA05230D8944EA05540A4DA842C1
:1018000005D00A4DA84202D0094DA84204D14D6925
:1018100022F4802242EA8522426043654968C1651C
:10182000046230BDFF8FFFFE002C014000400140EC
:101830000044014010B5036A046A24F00104046204
:10184000846924F0F00444EA021423F00A020A43F3
:101850008461026210BD10B5036A23F010030362B5
:101860008369046A23F4704343EA023224F0A0033C
:1018700043EA01118261016210BDFEE70907090E0A
:10188000002804DB00F1E02080F80014704700F02D
:101890000F0000F1E02080F8141D704702E008C836
:1018A000121F08C1002AFAD170477047002001E0DA
:1018B00001C1121F002AFBD1704700000024FEF76F
:1018C000A5FDFFF7CCFDFFF721FDFFF735FD00215A
:1018D0000E48FFF7AFFC0D4D4FF4FA76641C2868F4
:1018E000A4B244630120FEF795FCB442F6D306E0AF
:1018F0002868641EA4B244630120FEF78BFC002C10
:10190000F6D1C820FEF786FCE8E7000010000020B2
:10191000000000000000000001020304060708099F
:10192000A0860100400D0300801A060000350C005F
:1019300040420F0080841E0000093D0000127A0022
:101940000024F40000366E010048E801006CDC025F
:101950007019000800000020100000009C1800080A
:10196000801900081000002050040000AC18000886
:1019700001000000100000000000000000093D0010
:040000050800018D61
:00000001FF
